{
  "contractName": "Reservation",
  "abi": [
    {
      "inputs": [],
      "payable": false,
      "stateMutability": "nonpayable",
      "type": "constructor"
    },
    {
      "anonymous": false,
      "inputs": [
        {
          "indexed": false,
          "internalType": "uint256",
          "name": "id",
          "type": "uint256"
        },
        {
          "indexed": false,
          "internalType": "string",
          "name": "name",
          "type": "string"
        },
        {
          "indexed": false,
          "internalType": "uint256",
          "name": "price",
          "type": "uint256"
        },
        {
          "indexed": false,
          "internalType": "address payable",
          "name": "owner",
          "type": "address"
        },
        {
          "indexed": false,
          "internalType": "bool",
          "name": "booked",
          "type": "bool"
        }
      ],
      "name": "ReservationBooked",
      "type": "event"
    },
    {
      "anonymous": false,
      "inputs": [
        {
          "indexed": false,
          "internalType": "uint256",
          "name": "id",
          "type": "uint256"
        },
        {
          "indexed": false,
          "internalType": "string",
          "name": "name",
          "type": "string"
        },
        {
          "indexed": false,
          "internalType": "uint256",
          "name": "price",
          "type": "uint256"
        },
        {
          "indexed": false,
          "internalType": "address payable",
          "name": "owner",
          "type": "address"
        },
        {
          "indexed": false,
          "internalType": "bool",
          "name": "booked",
          "type": "bool"
        }
      ],
      "name": "ReservationCreated",
      "type": "event"
    },
    {
      "constant": true,
      "inputs": [],
      "name": "name",
      "outputs": [
        {
          "internalType": "string",
          "name": "",
          "type": "string"
        }
      ],
      "payable": false,
      "stateMutability": "view",
      "type": "function"
    },
    {
      "constant": true,
      "inputs": [],
      "name": "reservationCount",
      "outputs": [
        {
          "internalType": "uint256",
          "name": "",
          "type": "uint256"
        }
      ],
      "payable": false,
      "stateMutability": "view",
      "type": "function"
    },
    {
      "constant": true,
      "inputs": [
        {
          "internalType": "uint256",
          "name": "",
          "type": "uint256"
        }
      ],
      "name": "reservations",
      "outputs": [
        {
          "internalType": "uint256",
          "name": "id",
          "type": "uint256"
        },
        {
          "internalType": "string",
          "name": "name",
          "type": "string"
        },
        {
          "internalType": "uint256",
          "name": "price",
          "type": "uint256"
        },
        {
          "internalType": "address payable",
          "name": "owner",
          "type": "address"
        },
        {
          "internalType": "bool",
          "name": "booked",
          "type": "bool"
        }
      ],
      "payable": false,
      "stateMutability": "view",
      "type": "function"
    },
    {
      "constant": false,
      "inputs": [
        {
          "internalType": "string",
          "name": "_name",
          "type": "string"
        },
        {
          "internalType": "uint256",
          "name": "_price",
          "type": "uint256"
        }
      ],
      "name": "createReservation",
      "outputs": [],
      "payable": false,
      "stateMutability": "nonpayable",
      "type": "function"
    },
    {
      "constant": false,
      "inputs": [
        {
          "internalType": "uint256",
          "name": "_id",
          "type": "uint256"
        }
      ],
      "name": "bookedReservation",
      "outputs": [],
      "payable": true,
      "stateMutability": "payable",
      "type": "function"
    }
  ],
  "bytecode": "0x6080604052600060015534801561001557600080fd5b506040518060400160405280600581526020017f574845524500000000000000000000000000000000000000000000000000000081525060009080519060200190610061929190610067565b5061010c565b828054600181600116156101000203166002900490600052602060002090601f016020900481019282601f106100a857805160ff19168380011785556100d6565b828001600101855582156100d6579182015b828111156100d55782518255916020019190600101906100ba565b5b5090506100e391906100e7565b5090565b61010991905b808211156101055760008160009055506001016100ed565b5090565b90565b610beb8061011b6000396000f3fe60806040526004361061004a5760003560e01c8063067cf8321461004f57806306fdde031461014f5780635625ea24146101df578063e281191c1461020d578063e84f756e146102df575b600080fd5b34801561005b57600080fd5b506100886004803603602081101561007257600080fd5b810190808035906020019092919050505061030a565b60405180868152602001806020018581526020018473ffffffffffffffffffffffffffffffffffffffff1673ffffffffffffffffffffffffffffffffffffffff16815260200183151515158152602001828103825286818151815260200191508051906020019080838360005b838110156101105780820151818401526020810190506100f5565b50505050905090810190601f16801561013d5780820380516001836020036101000a031916815260200191505b50965050505050505060405180910390f35b34801561015b57600080fd5b50610164610405565b6040518080602001828103825283818151815260200191508051906020019080838360005b838110156101a4578082015181840152602081019050610189565b50505050905090810190601f1680156101d15780820380516001836020036101000a031916815260200191505b509250505060405180910390f35b61020b600480360360208110156101f557600080fd5b81019080803590602001909291905050506104a3565b005b34801561021957600080fd5b506102dd6004803603604081101561023057600080fd5b810190808035906020019064010000000081111561024d57600080fd5b82018360208201111561025f57600080fd5b8035906020019184600183028401116401000000008311171561028157600080fd5b91908080601f016020809104026020016040519081016040528093929190818152602001838380828437600081840152601f19601f820116905080830192505050505050509192919290803590602001909291905050506108b2565b005b3480156102eb57600080fd5b506102f4610ac4565b6040518082815260200191505060405180910390f35b6002602052806000526040600020600091509050806000015490806001018054600181600116156101000203166002900480601f0160208091040260200160405190810160405280929190818152602001828054600181600116156101000203166002900480156103bc5780601f10610391576101008083540402835291602001916103bc565b820191906000526020600020905b81548152906001019060200180831161039f57829003601f168201915b5050505050908060020154908060030160009054906101000a900473ffffffffffffffffffffffffffffffffffffffff16908060030160149054906101000a900460ff16905085565b60008054600181600116156101000203166002900480601f01602080910402602001604051908101604052809291908181526020018280546001816001161561010002031660029004801561049b5780601f106104705761010080835404028352916020019161049b565b820191906000526020600020905b81548152906001019060200180831161047e57829003601f168201915b505050505081565b6104ab610aca565b600260008381526020019081526020016000206040518060a001604052908160008201548152602001600182018054600181600116156101000203166002900480601f01602080910402602001604051908101604052809291908181526020018280546001816001161561010002031660029004801561056c5780601f106105415761010080835404028352916020019161056c565b820191906000526020600020905b81548152906001019060200180831161054f57829003601f168201915b50505050508152602001600282015481526020016003820160009054906101000a900473ffffffffffffffffffffffffffffffffffffffff1673ffffffffffffffffffffffffffffffffffffffff1673ffffffffffffffffffffffffffffffffffffffff1681526020016003820160149054906101000a900460ff1615151515815250509050600081606001519050600082600001511180156106155750600154826000015111155b61061e57600080fd5b816040015134101561062f57600080fd5b81608001511561063e57600080fd5b3373ffffffffffffffffffffffffffffffffffffffff168173ffffffffffffffffffffffffffffffffffffffff16141561067757600080fd5b33826060019073ffffffffffffffffffffffffffffffffffffffff16908173ffffffffffffffffffffffffffffffffffffffff1681525050600182608001901515908115158152505081600260008581526020019081526020016000206000820151816000015560208201518160010190805190602001906106fa929190610b11565b506040820151816002015560608201518160030160006101000a81548173ffffffffffffffffffffffffffffffffffffffff021916908373ffffffffffffffffffffffffffffffffffffffff16021790555060808201518160030160146101000a81548160ff0219169083151502179055509050508073ffffffffffffffffffffffffffffffffffffffff166108fc349081150290604051600060405180830381858888f193505050501580156107b5573d6000803e3d6000fd5b507f92d7ad2c5a07c548e29d886ea0c6eb90869cb97ec417b6c778b9e0722ba7e24b6001548360200151846040015133600160405180868152602001806020018581526020018473ffffffffffffffffffffffffffffffffffffffff1673ffffffffffffffffffffffffffffffffffffffff16815260200183151515158152602001828103825286818151815260200191508051906020019080838360005b8381101561086f578082015181840152602081019050610854565b50505050905090810190601f16801561089c5780820380516001836020036101000a031916815260200191505b50965050505050505060405180910390a1505050565b60008251116108c057600080fd5b600081116108cd57600080fd5b6001600081548092919060010191905055506040518060a0016040528060015481526020018381526020018281526020013373ffffffffffffffffffffffffffffffffffffffff1681526020016000151581525060026000600154815260200190815260200160002060008201518160000155602082015181600101908051906020019061095c929190610b11565b506040820151816002015560608201518160030160006101000a81548173ffffffffffffffffffffffffffffffffffffffff021916908373ffffffffffffffffffffffffffffffffffffffff16021790555060808201518160030160146101000a81548160ff0219169083151502179055509050507f3a680e9e7ae78156d1319f3f90559264ff4eef8184f7ec3e2f7026953efacf5c600154838333600060405180868152602001806020018581526020018473ffffffffffffffffffffffffffffffffffffffff1673ffffffffffffffffffffffffffffffffffffffff16815260200183151515158152602001828103825286818151815260200191508051906020019080838360005b83811015610a82578082015181840152602081019050610a67565b50505050905090810190601f168015610aaf5780820380516001836020036101000a031916815260200191505b50965050505050505060405180910390a15050565b60015481565b6040518060a00160405280600081526020016060815260200160008152602001600073ffffffffffffffffffffffffffffffffffffffff1681526020016000151581525090565b828054600181600116156101000203166002900490600052602060002090601f016020900481019282601f10610b5257805160ff1916838001178555610b80565b82800160010185558215610b80579182015b82811115610b7f578251825591602001919060010190610b64565b5b509050610b8d9190610b91565b5090565b610bb391905b80821115610baf576000816000905550600101610b97565b5090565b9056fea265627a7a7231582083327cfe7a5921fb8562788824221e89985aa4954d9d94880b4c982f5f46a90564736f6c63430005100032",
  "source": "pragma solidity >=0.5.0;\r\n\r\ncontract Reservation {\r\n    string public name;\r\n    uint public reservationCount = 0;\r\n    mapping(uint => Reservation) public reservations;\r\n\r\n    struct Reservation {\r\n        uint id;\r\n        string name;\r\n        uint price;\r\n        address payable owner;\r\n        bool booked;\r\n    }\r\n\r\n    event ReservationCreated(\r\n\t\tuint id,\r\n        string name,\r\n        uint price,\r\n        address payable owner,\r\n        bool booked\r\n\t);\r\n\r\n    event ReservationBooked(\r\n\t\tuint id,\r\n\t\tstring name,\r\n\t\tuint price,\r\n\t\taddress payable owner,\r\n\t\tbool booked\r\n\t);\r\n\r\n    constructor() public {\r\n\t\tname = \"WHERE\";\r\n\t}\r\n\r\n    function createReservation(string memory _name, uint _price) public {\r\n\t\t//Requira a name\r\n\t\trequire (bytes(_name).length>0);\r\n\t\t//Require a valid price\r\n\t\trequire (_price > 0);\r\n\t\t//Increment product count\r\n\t\treservationCount++;\r\n\t\t//create the product\r\n\t\treservations[reservationCount] = Reservation(reservationCount, _name, _price, msg.sender, false);\r\n\t\t//trigger an event\r\n\t\temit ReservationCreated(reservationCount, _name, _price, msg.sender, false);\r\n\t}\r\n\r\n    function bookedReservation(uint _id) public payable {\r\n\t\t//Fetch the reservation\r\n\t\tReservation memory _reservation = reservations[_id];\r\n\t\t//Fetch the owner\r\n\t\taddress payable _seller = _reservation.owner; \r\n\t\t//Make sure the reservation has valid id\r\n\t\trequire(_reservation.id > 0 && _reservation.id <= reservationCount);\r\n\t\t//Require that there is enough Ether in transaction\r\n\t\trequire(msg.value >= _reservation.price);\r\n\t\t//Require that the reservation has not been booked already\r\n\t\trequire(!_reservation.booked);\r\n\t\t//Require that the buyer is not the seller\r\n\t\trequire(_seller != msg.sender);\r\n\t\t//Transfer ownership to the buyer\r\n\t\t_reservation.owner = msg.sender;\r\n\t\t// Mark as booked\r\n\t\t_reservation.booked=true;\r\n\t\t//Update the reservations\r\n\t\treservations[_id]=_reservation;\r\n\t\t//Pay the reservation seller by sending them Ether\r\n\t\taddress(_seller).transfer(msg.value);\r\n\t\t//Trigger an event\r\n\t\temit ReservationBooked(reservationCount, _reservation.name, _reservation.price, msg.sender, true);\r\n\t}\r\n}\r\n",
  "sourcePath": "E:\\Bitirme\\Where-Frontend\\where-fronted\\where\\src\\contracts\\Reservation.sol",
  "compiler": {
    "name": "solc",
    "version": "0.5.16+commit.9c3226ce.Emscripten.clang"
  },
  "schemaVersion": "3.4.5",
  "updatedAt": "2022-03-28T12:33:50.537Z",
  "networkType": "ethereum",
  "devdoc": {
    "methods": {}
  },
  "userdoc": {
    "methods": {}
  }
}